:100000000C945F000C9471010C94BB010C947C0067
:100010000C947C000C9405020C947C000C947C00E5
:100020000C947C000C947C000C947C000C947C0060
:100030000C947C000C947C000C947C000C947C0050
:100040000C947C000C947C000C9466020C947C0054
:100050000C947C000C947C000C947C000C947C0030
:100060000C947E000C947C00F1001A01F6001A0139
:100070000B011A0110011A0101011A0115011A01DF
:1000800006011A0120012001200120012001200188
:100090000B011A0110011A0115011A010D0A5374FE
:1000A0006172740D0A0045464765666700202B2D76
:1000B0002E30313233343536373839680000112468
:1000C0001FBECFEFD8E0DEBFCDBF21E0A6E0B1E09C
:1000D00001C01D92A739B207E1F711E0A0E0B1E03D
:1000E000E2E0F5E102C005900D92A630B107D9F724
:1000F0000E946D030C947F0A0C9400001F920F92D3
:100100000FB60F9211248F939F93AF93BF93EF93EA
:10011000FF938091B900887F803A09F49CC028F44D
:10012000803669F0803889F098C0883B09F44CC06B
:10013000883F09F495C0883A09F08FC045C085EC26
:100140008093BC00109221018BC0809121018F30DF
:1001500029F18F3F61F181112EC08091BB00809306
:10016000210180912101853021F481E080931501E6
:100170000FC080912101873021F481E08093130129
:1001800007C0809121018B3019F481E08093140124
:100190008091210181508093210107C08091BB0093
:1001A000882311F05D9A01C05D9885EC05C08091AF
:1001B000BB008093200185E88093BC0080912101E1
:1001C0008F3F09F042C04CC0E09121018E2F90E09A
:1001D000FC013197EA31F10598F5EC5CFF4F0C9486
:1001E000A70580911E0190911F0104C080911C0100
:1001F00090911D0180930C0190930D019093BB0091
:100200001DC08091110190911201F4CF80910F01D6
:1002100090911001EFCF80911A0190911B01EACFCC
:100220008091160190911701E5CF8091180190916E
:100230001901E0CF80910C018093BB0085EC03C0D5
:100240001092BB0085E88093BC00809121018F5FF4
:100250008093210105C085EC01C085ED8093BC0031
:10026000FF91EF91BF91AF919F918F910F900FBE32
:100270000F901F90189597E890937A0080937C00D8
:1002800080917C00806480937C0080917A008064FF
:1002900080937A0080917A0086FDFCCF809178006F
:1002A0009091790025E080E090E030917A00306410
:1002B00030937A0030917A0036FDFCCF409178007F
:1002C00050917900840F951F215079F720917A0081
:1002D0002F7720937A0065E070E00E947405CB01CF
:1002E00008951F920F920FB60F9211242F933F93F0
:1002F0004F935F936F937F938F939F93AF93BF932E
:10030000EF93FF9360918400709185004A9B05C034
:1003100070930B0160930A011DC080910A019091B6
:100320000B01681B790B80E090E00E94140727EE18
:100330003CE840E350E40E94A20720E030E040E0C7
:100340005FE30E9407060E94E50670931B0160931D
:100350001A01E898FF91EF91BF91AF919F918F9112
:100360007F916F915F914F913F912F910F900FBEB1
:100370000F901F9018951F920F920FB60F92112495
:100380002F933F934F935F936F937F938F939F939D
:10039000AF93BF93EF93FF936091840070918500BA
:1003A0004B9B05C070930901609308011DC08091AB
:1003B000080190910901681B790B80E090E00E9490
:1003C000140727EE3CE840E350E40E94A20720E037
:1003D00030E040E05FE30E9407060E94E50670936C
:1003E000170160931601E998FF91EF91BF91AF91CA
:1003F0009F918F917F916F915F914F913F912F913D
:100400000F900FBE0F901F9018951F920F920FB66E
:100410000F9211242F933F934F935F936F937F938A
:100420008F939F93AF93BF93EF93FF93CF93DF93FC
:100430001F92CDB7DEB789B1898390910E018927CC
:1004400084FF2DC06091840070918500898184FFB4
:1004500005C0709307016093060121C080910601D9
:1004600090910701681B790B80E090E00E941407CF
:1004700027EE3CE840E350E40E94A20720E030E091
:1004800040E05FE30E9407060E94E50670931901B1
:100490006093180180916D008F7E80936D0089813B
:1004A00080930E010F90DF91CF91FF91EF91BF915B
:1004B000AF919F918F917F916F915F914F913F91FC
:1004C0002F910F900FBE0F901F9018951F920F92B3
:1004D0000FB60F9211248F939F93EF93FF93809108
:1004E000C00087FF17C0E0912401F09125018091A1
:1004F000C600808381E0E938F80730F43196F09344
:100500002501E093240106C086E291E09093250145
:1005100080932401FF91EF919F918F910F900FBED7
:100520000F901F9018959C01E1ECF0E088E180832A
:1005300080818068808386E08093C200C901A0E04A
:10054000B0E09C01AD0184E0220F331F441F551F12
:100550008A95D1F760E074E284EF90E00E9488050C
:10056000DA01C9010197A109B109892F9A2FAB2F8F
:10057000BB27A7FDBA958093C50021502093C400E6
:1005800086E291E0909323018093220190932501CC
:100590008093240108952091C00025FFFCCFFC0129
:1005A00080818093C6000895CF93DF931F92CDB7CB
:1005B000DEB78983CE0101960E94CB0280E090E0F5
:1005C0000F90DF91CF910895CF93DF93EC01CE018F
:1005D0002196FC012081222319F00E94CB02F7CF43
:1005E000DF91CF9108958091C00087FFFCCF80916B
:1005F000C60090E008950C94F3026BEF72E084ED76
:1006000092E00C941A08CF93DF93FC01E253FF4F62
:10061000A081B181EC01C453DF4F28813981A21739
:10062000B307B9F02091C00025FF13C02C9120938F
:10063000C60020813181AC0145535F4F2417350737
:1006400018F42F5F3F4F03C09C0128593F4F31835F
:100650002083E0912201F091230120912401309127
:1006600025012E173F07B1F1EC01CC59DF4FA881CE
:10067000B98120812C93688179819C012B523F4F55
:10068000D9013C91DB012C91321307C0AC014C52D3
:100690005F4FDA012C912F5F2C939C012D593F4F16
:1006A0006217730728F4DB011196B983A88302C08F
:1006B00099838883B1E0E938FB0730F43196F093F1
:1006C0002301E093220106C086E291E0909323018A
:1006D00080932201DF91CF9108951092200180E84C
:1006E00095E20E9493020E94FD0280E28AB91BB843
:1006F00082E58093BA0085EC8093BC001092800064
:1007000084E08093810095E0909369008093680075
:100710008CE990E09F938F930E949D0883B7817F1F
:1007200083BF78940F900F90C8E1D8E080912101A9
:100730008930E1F068F4813089F0833009F060C0DD
:1007400081E00E943B0190931D0180931C0158C0E1
:100750008D3009F18F3F09F43FC052C080E00E9404
:100760003B0190931F0180931E014AC082E00E94CA
:100770003B01BC0180E090E00E94140728E431EEC8
:100780004AEB5FE30E94A2070E94E5067093120104
:100790006093110135C083E00E943B01BC0180E001
:1007A00090E00E94140725E13CE840EA50E40E94F2
:1007B000A2072CEE31E741E054E40E94060622EF46
:1007C00038E941E05EE30E9473060E94E5067093FB
:1007D000100160930F0114C080912001853A81F4CB
:1007E000F8946BE780E090E00E94710AF999FECFDF
:1007F0000FB6F894A895C09360000FBED093600028
:1008000080911501882391F01092150110921B011F
:1008100010921A01529A5A9A85E38A95F1F70000CC
:100820005A9852988CB381708CBBE89A80911301CE
:10083000882391F010921301109217011092160163
:10084000539A5B9A85E38A95F1F700005B98539879
:100850008CB382708CBBE99A809114018823B1F02B
:10086000109214011092190110921801549A5C9A76
:1008700085E38A95F1F700005C98549889B18093DC
:100880000E0180916D00806180936D0083B781605F
:1008900083BF889583B78E7F83BF48CFACE0B0E03D
:1008A000E4E5F4E00C94B1056C015B017A01FC0114
:1008B00017821682838181FF0EC1CE0101964C0101
:1008C000F6010381F50103FD159103FF11915F010D
:1008D000112309F4FCC0153249F403FD159103FFFF
:1008E00011915F01153211F020E01BC0B601812F7C
:1008F00090E00E94650837017301E2CF112309F4EB
:10090000E6C0612F70E08DEA90E02C870E940F080E
:100910002C85892B49F0F50103FD159103FF1191F9
:100920005F0127FFEBCF09C0133229F01C3609F015
:10093000D5C02068F0CF20E1EECF022F112309F4BB
:10094000C6C0612F70E086EA90E02C870E940F08F5
:100950002C85892B41F03701F4E06F0E711CB60134
:100960008FE390E011C0133639F0133781F013355F
:1009700019F5022F01600BC0370182E0680E711C6F
:10098000B601F701808191810E946508B5CF3701DA
:10099000F2E06F0E711CF701E080F180F70100FDBD
:1009A000859100FF81917F01882309F4A5CFB601CD
:1009B00090E00E946508F2CF143611F0193629F53F
:1009C000370127FF09C0F4E06F0E711CF701608149
:1009D0007181828193810AC0F2E06F0E711CF70170
:1009E00060817181072E000C880B990B022F0F7EFE
:1009F00097FF08C090958095709561957F4F8F4FB8
:100A00009F4F00642AE030E033C0103799F040F483
:100A10001835B1F01F3609F05AC028E030E014C094
:100A2000153719F0183741F052C0022F0F7E2AE017
:100A300030E00AC0022F0061046220E130E004C00F
:100A4000022F046020E132E0370107FF09C0F4E023
:100A50006F0E711CF701608171818281938108C0E2
:100A6000F2E06F0E711CF7016081718180E090E00F
:100A7000A4010E94C308182F181906FF05C0B6016B
:100A80008DE290E00E94650804FF15C0FE01E10FB1
:100A9000F11D8081803379F0B60180E390E00E94FF
:100AA000650802FF08C00072802F90E0B601885AE6
:100AB0009F4F0E9465081150F401E10FF11D8081E4
:100AC000B60190E00E9465081111F5CF15CFF6012F
:100AD0008681978105C08FEF9FEF02C0022F31CF33
:100AE0002C96EEE00C94CD05AA1BBB1B51E107C070
:100AF000AA1FBB1FA617B70710F0A61BB70B881FAE
:100B0000991F5A95A9F780959095BC01CD0108953C
:100B1000052E97FB1EF400940E949F0557FD07D0F9
:100B20000E94E40507FC03D04EF40C949F055095F9
:100B30004095309521953F4F4F4F5F4F08959095C9
:100B40008095709561957F4F8F4F9F4F0895EE0F61
:100B5000FF1F0590F491E02D09942F923F924F9240
:100B60005F926F927F928F929F92AF92BF92CF923D
:100B7000DF92EF92FF920F931F93CF93DF93CDB746
:100B8000DEB7CA1BDB0B0FB6F894DEBF0FBECDBFBE
:100B900009942A88398848885F846E847D848C848F
:100BA0009B84AA84B984C884DF80EE80FD800C8198
:100BB0001B81AA81B981CE0FD11D0FB6F894DEBF7B
:100BC0000FBECDBFED010895A1E21A2EAA1BBB1BDB
:100BD000FD010DC0AA1FBB1FEE1FFF1FA217B30709
:100BE000E407F50720F0A21BB30BE40BF50B661F1F
:100BF000771F881F991F1A9469F7609570958095E3
:100C000090959B01AC01BD01CF0108955058BB27C1
:100C1000AA270E941E060C9468070E945A0738F003
:100C20000E94610720F039F49F3F19F426F40C94D8
:100C300057070EF4E095E7FB0C945107E92F0E944B
:100C4000790758F3BA17620773078407950720F0EE
:100C500079F4A6F50C949B070EF4E0950B2EBA2FB1
:100C6000A02D0B01B90190010C01CA01A0011124B2
:100C7000FF27591B99F0593F50F4503E68F11A165E
:100C8000F040A22F232F342F4427585FF3CF4695EF
:100C900037952795A795F0405395C9F77EF41F1611
:100CA000BA0B620B730B840BBAF09150A1F0FF0FDB
:100CB000BB1F661F771F881FC2F70EC0BA0F621FC7
:100CC000731F841F48F4879577956795B795F795B7
:100CD0009E3F08F0B0CF9395880F08F09927EE0F4C
:100CE0009795879508950E9487060C9468070E943F
:100CF000610758F00E945A0740F029F45F3F29F03D
:100D00000C94510751110C949C070C9457070E94A6
:100D1000790768F39923B1F3552391F3951B550B8C
:100D2000BB27AA2762177307840738F09F5F5F4FBE
:100D3000220F331F441FAA1FA9F335D00E2E3AF0FD
:100D4000E0E832D091505040E695001CCAF72BD015
:100D5000FE2F29D0660F771F881FBB1F2617370766
:100D60004807AB07B0E809F0BB0B802DBF01FF2798
:100D700093585F4F3AF09E3F510578F00C9451071D
:100D80000C949C075F3FE4F3983ED4F386957795E7
:100D90006795B795F7959F5FC9F7880F911D969551
:100DA000879597F90895E1E0660F771F881FBB1FAD
:100DB000621773078407BA0720F0621B730B840B5A
:100DC000BA0BEE1F88F7E09508950E94810788F01E
:100DD0009F5798F0B92F9927B751B0F0E1F0660FFF
:100DE000771F881F991F1AF0BA95C9F714C0B13040
:100DF00091F00E949B07B1E008950C949B07672F28
:100E0000782F8827B85F39F0B93FCCF3869577956E
:100E10006795B395D9F73EF4909580957095619557
:100E20007F4F8F4F9F4F0895E89409C097FB3EF482
:100E300090958095709561957F4F8F4F9F4F992327
:100E4000A9F0F92F96E9BB279395F69587957795A5
:100E50006795B795F111F8CFFAF4BB0F11F460FF65
:100E60001BC06F5F7F4F8F4F9F4F16C0882311F0BD
:100E700096E911C0772321F09EE8872F762F05C0D1
:100E8000662371F096E8862F70E060E02AF09A956C
:100E9000660F771F881FDAF7880F9695879597F961
:100EA000089597F99F6780E870E060E008959FEFEC
:100EB00080EC089500240A941616170618060906F1
:100EC000089500240A9412161306140605060895C0
:100ED000092E0394000C11F4882352F0BB0F40F448
:100EE000BF2B11F460FF04C06F5F7F4F8F4F9F4F88
:100EF000089557FD9058440F551F59F05F3F71F00A
:100F00004795880F97FB991F61F09F3F79F0879570
:100F10000895121613061406551FF2CF4695F1DFF9
:100F200008C0161617061806991FF1CF8695710589
:100F3000610508940895E894BB2766277727CB01BD
:100F400097F908950E94B5070C9468070E945A0704
:100F500038F00E94610720F0952311F00C9451079E
:100F60000C94570711240C949C070E94790770F386
:100F7000959FC1F3950F50E0551F629FF001729F3E
:100F8000BB27F00DB11D639FAA27F00DB11DAA1F4D
:100F9000649F6627B00DA11D661F829F2227B00D9A
:100FA000A11D621F739FB00DA11D621F839FA00D25
:100FB000611D221F749F3327A00D611D231F849F75
:100FC000600D211D822F762F6A2F11249F575040CC
:100FD0009AF0F1F088234AF0EE0FFF1FBB1F661F47
:100FE000771F881F91505040A9F79E3F510580F010
:100FF0000C9451070C949C075F3FE4F3983ED4F3A4
:10100000869577956795B795F795E7959F5FC1F7B3
:10101000FE2B880F911D9695879597F90895FC01F1
:101020000590061621F00020D9F7C00108953197E8
:10103000CF0108950F931F93CF93DF93009731F45F
:101040006115710519F480E090E03AC08B01EC0164
:101050006EE070E081E090E00E942109FC01892BA4
:1010600091F380E883830115110571F013870287DE
:1010700081E8838380918D0190918E01892B21F4E9
:10108000F0938E01E0938D012097C9F0D187C0873E
:1010900083818260838380918F0190919001892B5D
:1010A00071F4F0939001E0938F0180919101909100
:1010B0009201892B21F4F0939201E0939101CF01E9
:1010C000DF91CF911F910F9108950F931F93CF93AD
:1010D000DF93FB01238121FD03C08FEF9FEF28C029
:1010E00022FF16C04681578124813581421753075C
:1010F00044F4A081B1819D012F5F3F4F3183208354
:101100008C93268137812F5F3F4F3783268310C012
:10111000EB01092F182F0084F185E02D0995892B0B
:10112000E1F68E819F8101969F838E83812F902F80
:10113000DF91CF911F910F910895A0E0B0E0E3EA15
:10114000F8E00C94BB05AE01495F5F4FDA016D9189
:101150007D91AD010DE811E0F80182819381DC0100
:1011600013962C911397286013962C930E944E048B
:10117000D8011296ED91FC9113972381277F238349
:10118000E4E00C94D705FA01AA27283051F1203168
:1011900081F1E8946F936E7F6E5F7F4F8F4F9F4F0B
:1011A000AF4FB1E03ED0B4E03CD0670F781F891F4D
:1011B0009A1FA11D680F791F8A1F911DA11D6A0F1B
:1011C000711D811D911DA11D20D009F468943F91CE
:1011D0002AE0269F11243019305D3193DEF6CF01CD
:1011E0000895462F4770405D4193B3E00FD0C9F793
:1011F000F6CF462F4F70405D4A3318F0495D31FD00
:101200004052419302D0A9F7EACFB4E0A695979552
:10121000879577956795BA95C9F700976105710528
:1012200008959B01AC010A2E069457954795379572
:101230002795BA95C9F7620F731F841F951FA01DCC
:1012400008950F931F93CF93DF93869F8001879F0D
:10125000100D969F100D1124C8010E943D09EC014C
:10126000009729F0A80160E070E00E946A0ACE01B0
:10127000DF91CF911F910F910895CF93DF9382302B
:10128000910510F482E090E0E0919501F0919601D3
:1012900020E030E0C0E0D0E0309711F14081518192
:1012A00048175907C0F04817590761F482819381A4
:1012B000209719F09B838A832BC09093960180938B
:1012C000950126C02115310519F04217530718F46E
:1012D0009A01BE01DF01EF010280F381E02DDCCF36
:1012E0002115310509F1281B390B2430310590F403
:1012F00012968D919C9113976115710521F0FB0158
:101300009383828304C09093960180939501FD019D
:10131000329644C0FD01E20FF31F81939193225056
:1013200031092D933C933AC020919301309194015F
:10133000232B41F420910201309103013093940159
:101340002093930120910001309101012115310575
:1013500041F42DB73EB74091040150910501241B83
:10136000350BE0919301F0919401E217F307A0F49B
:101370002E1B3F0B2817390778F0AC014E5F5F4FEB
:101380002417350748F04E0F5F1F50939401409388
:1013900093018193919302C0E0E0F0E0CF01DF91EF
:1013A000CF9108950F931F93CF93DF93009709F484
:1013B0008CC0FC013297138212820091950110912A
:1013C00096010115110581F420813181820F931F4F
:1013D00020919301309194012817390779F5F09302
:1013E0009401E093930171C0D80140E050E0AE1742
:1013F000BF0750F412962D913C911397AD01211522
:10140000310509F1D901F3CF9D01DA01338322833C
:1014100060817181860F971F8217930769F4EC0131
:1014200028813981260F371F2E5F3F4F318320835C
:101430008A819B8193838283452B29F4F0939601C3
:10144000E093950142C01396FC93EE931297ED0141
:10145000499159919E01240F351FE217F30771F44A
:1014600080819181840F951F029611969C938E9393
:101470008281938113969C938E931297E0E0F0E023
:10148000D80112968D919C911397009719F0F8014D
:101490008C01F6CF8D919C9198012E5F3F4F820F6A
:1014A000931F20919301309194012817390769F413
:1014B000309729F4109296011092950102C0138280
:1014C00012821093940100939301DF91CF911F91A9
:1014D0000F910895DC0101C06D9341505040E0F739
:1014E0000895262FF999FECF1FBA92BD81BD20BD68
:1014F0000FB6F894FA9AF99A0FBE01960895F894E7
:02150000FFCF1B
:061502000000970120002B
:00000001FF
