:100000000C94F6000C9413010C9413010C9413013E
:100010000C9413010C9413010C9413010C94130110
:100020000C9413010C948F040C9413010C94130181
:100030000C9413010C947A050C9413010C94130185
:100040000C9413010C9413010C9413010C941501DE
:100050000C9413011B0325031E0325032103250311
:10006000230325036C046C046C046C046C046C04A2
:1000700027033F032C033F0331033F0336033F03B2
:100080006C046C046C046C046C046C046C046C04F0
:10009000420347034C03510356035B0360036503AC
:1000A0006C046C046C046C046C046C046C046C04D0
:1000B0006A036F03740379037E03830388038E034B
:1000C0009303A403AD03B603B903CE03D7034A04D5
:1000D000E003E903F203FB0304040D0416041F0408
:1000E000280431043D044A046C046C046C046C0460
:1000F0006C046C046C046C046C046C046C046C0480
:100100006C046C046C046C046C046C046C046C046F
:100110006C046C046C046C046C046C046C046C045F
:100120006C046C046C046C046C046C046C046C044F
:100130006C046C046C046C046C046C046C046C043F
:100140006C046C046C046C046C046C046C046C042F
:100150006C046C046C046C046C046C046C046C041F
:100160006C046C046C046C046C046C046C046C040F
:100170006C046C046C046C046C046C046C046C04FF
:100180006C046C046C046C046C046C046C046C04EF
:10019000530458045D046204670405A84CCDB2D42E
:1001A0004EB93836A9020C50B9918688083CA6AAE7
:1001B000AA2ABE000000803F493243205374617474
:1001C000653A20307825780D0A000D0A5374617263
:1001D000740D0A0045464765666700202B2D2E30BA
:1001E00031323334353637383968000011241FBEB8
:1001F000CFE5D8E0DEBFCDBF10E0A0E6B0E0EEEE88
:10020000FDE202C005900D92A037B107D9F721E0B9
:10021000A0E7B0E001C01D92AA36B207E1F70E9444
:1002200070060C94F5160C9400001F920F920FB6F6
:100230000F9211242F933F934F935F936F937F936C
:100240008F939F93AF93BF93EF93FF9381B1887F79
:100250008093A10081B1887F803A09F446C328F4D5
:10026000803669F0803881F042C3883B09F4D5C1FB
:10027000883F09F43EC3883A09F039C3CEC185EC02
:1002800086BF1092EB0035C38091EB008B3209F4EE
:1002900017C108F059C0803209F4F7C038F584302E
:1002A00009F4B6C060F4813009F4EFC008F49BC0D3
:1002B000823009F4A1C0833009F4E7C0A6C18630BA
:1002C00009F4B2C008F4E1C0873009F4DEC0883018
:1002D00009F09BC183B120919E0090E0922B9093F6
:1002E000E3008093E2001092D6008DC1853209F4BC
:1002F000BFC060F4823209F4C8C008F4A1C08332E0
:1003000009F4ABC0843209F4C0C07FC1883209F45B
:1003100005C198F4863209F4B8C0873209F075C176
:1003200083B120919E0090E0922B9093CD0080931A
:10033000CC0081E08093D60066C1893209F4A9C05F
:100340008A3209F4A6C061C1853509F40BC100F5F4
:10035000803509F4E3C060F48D3209F49AC008F4E2
:10036000DDC08E3209F495C08F3209F4A9C04DC1A9
:10037000823509F48EC008F48CC0833509F4D3C0EB
:10038000843509F042C183B190E0A0E0B0E0F8C04C
:10039000823909F426C178F4873509F4FAC008F4E3
:1003A000E1C0803909F419C1813909F02EC183B146
:1003B0008093680028C1853909F41BC150F4833942
:1003C00009F413C1843909F020C183B18093A500D9
:1003D00013C1843A09F414C18F3F09F016C183B1E7
:1003E0008093EA0012C183B18093EB008091EB000F
:1003F00081508093EB0007C183B120919E0090E073
:10040000922B9093E9008093E8001092D900FBC0F2
:1004100083B120919E0090E0922B9093E70080930F
:10042000E6001092D800EFC083B120919E0090E0CA
:10043000922B9093E5008093E4001092D700E3C0E4
:1004400083B120919E0090E0922B9093D3008093F3
:10045000D20081E08093D900D6C083B120919E0064
:1004600090E0922B9093D1008093D00081E053C014
:1004700083B120919E0090E0922B9093CF008093C7
:10048000CE0081E08093D700BEC083B180939E00F0
:10049000BAC023B180919A0090919B00A0919C00DA
:1004A000B0919D00BA2FA92F982F8827822B809377
:1004B0009A0090939B00A0939C00B0939D00A3C0D2
:1004C00023B180919A0090919B00A0919C00B091E3
:1004D0009D00BA2FA92F982F8827BC01CD01622B30
:1004E00060939A0070939B0080939C0090939D0072
:1004F00020E038E24EEA55E40E9442130E941612B0
:100500007093D3006093D2007093D1006093D000B9
:1005100081E08093D9008093D80075C083B190E0CA
:10052000A0E0B0E0C4CF23B180919A0090919B00ED
:10053000A0919C00B0919D00BA2FA92F982F8827D9
:10054000822B80939A0090939B00A0939C00B09381
:100550009D008093EC009093ED00A093EE00B0938B
:10056000EF0051C023B18091960090919700A09127
:100570009800B0919900BA2FA92F982F8827822B25
:100580008093960090939700A0939800B093990061
:100590003AC023B18091960090919700A091980065
:1005A000B0919900BA2FA92F982F8827822B80937A
:1005B000960090939700A0939800B0939900809331
:1005C000F0009093F100A093F200B093F30081E06B
:1005D0008093F4001092A20016C083B1809369004A
:1005E00012C083B18093D5000EC083B18093D40034
:1005F0000AC083B18093A40081E08093F40003C01B
:1006000083B180939F0085EC01C085E886BF80910F
:10061000EB008F3F09F063C16CC1E091EB008E2FBE
:1006200090E0FC013297E33AF10508F055C1E65D30
:10063000FF4F0C941F148AB59BB53CC188B599B582
:1006400039C183B537C18CB735C113B834C1809176
:10065000E0009091E1000EC08091DE009091DF00FB
:1006600009C08091DC009091DD0004C08091DA0027
:100670009091DB0090939500809394004DC0809101
:10068000940018C18091D2009091D30045C0809110
:10069000D2009091D3000EC18091D0009091D100F2
:1006A0003BC08091D0009091D10004C18091CE00D8
:1006B0009091CF0031C08091CE009091CF00FAC0D0
:1006C0008091CC009091CD0027C08091CC0090917A
:1006D000CD00F0C08091C1009091C2001DC08091FA
:1006E000C1009091C200E6C08091BF009091C0000F
:1006F00013C08091BF009091C000DCC08091BD000C
:100700009091BE0009C08091BD009091BE00D2C002
:100710008091BB009091BC0093B9CDC08091BB008B
:100720009091BC00C7C08091AB009091AC00A091AB
:10073000AD00B091AE0080939A0090939B00A0937F
:100740009C00B0939D0025C080919A0090919B00E1
:10075000A0919C00B0919D008CC080919A009091D6
:100760009B00A0919C00B0919D008FC080919A0049
:10077000A1C08091A7009091A800A091A900B0917C
:10078000AA008093960090939700A0939800B0934E
:1007900099008B2F9927AA27BB278CC080919600A0
:1007A00090919700A0919800B091990062C08091BB
:1007B000960090919700A0919800B091990065C023
:1007C0008091B7009091B800A091B900B091BA00A3
:1007D000E0CF8091B7009091B800A091B900B0919E
:1007E000BA0047C08091B7009091B800A091B900BD
:1007F000B091BA004AC08091B7009091B800A09122
:10080000B900B091BA0056C08091B3009091B40085
:10081000A091B500B091B600BCCF8091B30090918B
:10082000B400A091B500B091B60023C08091B30090
:100830009091B400A091B500B091B60026C080910F
:10084000B3009091B400A091B500B091B60032C051
:100850008091AF009091B000A091B100B091B20032
:1008600098CF8091AF009091B000A091B100B0916D
:10087000B200CD01AA27BB271DC08091AF00909187
:10088000B000A091B100B091B200892F9A2FAB2F88
:10089000BB2710C08091AF009091B000A091B10033
:1008A000B091B20007C084B78F7083B914BE03C083
:1008B0008091A30083B985EC11C08091A60083B913
:1008C00085EC86BF8091A00083B985EC86BF8091BE
:1008D0009F0083B985EC86BF13B885E886BF8091F9
:1008E000EB008F5F8093EB0004C085EC01C085EDC9
:1008F00086BF80919F00823009F4A895FF91EF9107
:10090000BF91AF919F918F917F916F915F914F9127
:100910003F912F910F900FBE0F901F9018951F922F
:100920000F920FB60F9211242F933F934F935F9323
:100930006F937F938F939F9389B380FF02C093E05F
:1009400001C090E081FF02C081E098278091930070
:10095000891B80FF22C09093930020916900982FFB
:100960009270222351F02091E0003091E100892F14
:1009700090E00197820F931F0CC04091E0005091CE
:10098000E10021E030E0B901691B7109CB01840F5E
:10099000951F9093E1008093E00089B382958F705A
:1009A00080FF02C093E001C090E081FF02C081E0BF
:1009B000982780919200891B80FF22C0909392001B
:1009C00020916800982F9270222369F04091DE00F8
:1009D0005091DF0021E030E0B901691B7109CB01C2
:1009E000840F951F09C02091DE003091DF00892F10
:1009F00090E00197820F931F9093DF008093DE00B9
:100A000089B38695869580FF02C093E001C090E08F
:100A100081FF02C081E0982780919100891B80FFAF
:100A200022C0909391002091D500982F927022239C
:100A300069F04091DC005091DD0021E030E0B90127
:100A4000691B7109CB01840F951F09C02091DC003F
:100A50003091DD00892F90E00197820F931F9093D2
:100A6000DD008093DC0089B382958695869583703E
:100A700080FF02C093E001C090E0827011F081E03D
:100A8000982780919000891B80FF22C0909390004E
:100A90002091D400982F9270222351F02091DA00F7
:100AA0003091DB00892F90E00197820F931F0CC0DB
:100AB0004091DA005091DB0021E030E0B901691B80
:100AC0007109CB01840F951F9093DB008093DA00AE
:100AD0008091C3008F5F8093C3009F918F917F911E
:100AE0006F915F914F913F912F910F900FBE0F909B
:100AF0001F9018951F920F920FB60F9211248F938B
:100B00009F93EF93FF935F9B16C0E091F700F091E6
:100B1000F8008CB1808381E0EC35F80730F4319631
:100B2000F093F800E093F70006C089EF90E090930F
:100B3000F8008093F700FF91EF919F918F910F90B4
:100B40000FBE0F901F9018959C018AB188618AB9D9
:100B5000579A80B5866080BDC901A0E0B0E09C01D5
:100B6000AD0184E0220F331F441F551F8A95D1F732
:100B700060E47BE48CE490E00E940014DA01C90197
:100B80000197A109B109892F9A2FAB2FBB27A7FD88
:100B9000BA9580BD215029B989EF90E09093F60075
:100BA0008093F5009093F8008093F70008955D9B83
:100BB000FECFFC0180818CB90895CF93DF931F9203
:100BC000CDB7DEB78983CE0101960E94D70580E0BC
:100BD00090E00F90DF91CF910895CF93DF93EC01D8
:100BE000CE012196FC012081222319F00E94D70515
:100BF000F7CFDF91CF9108955F9BFECF8CB190E04E
:100C000008950C94FC0561E076E08DED95E00C9480
:100C10008914CF93DF93FC01E253FF4FA081B18190
:100C2000EC01C453DF4F28813981A217B307A1F02B
:100C30005D9B12C02C912CB920813181AC014553B0
:100C40005F4F2417350718F42F5F3F4F03C09C01F7
:100C500028593F4F31832083E091F500F091F60051
:100C60002091F7003091F8002E173F07B1F1EC0109
:100C7000CC59DF4FA881B98120812C93688179817B
:100C80009C012B523F4FD9013C91DB012C91321337
:100C900007C0AC014C525F4FDA012C912F5F2C93AF
:100CA0009C012D593F4F6217730728F4DB01119601
:100CB000B983A88302C099838883B1E0EC35FB0730
:100CC00030F43196F093F600E093F50006C089EF1A
:100CD00090E09093F6008093F500DF91CF91089516
:100CE000CF93DF93CDB7DEB7A0970FB6F894DEBFF2
:100CF0000FBECDBF88E087BB8CEF84BB8CEB81BB84
:100D000087E088BB80E482BB1092EA0080E895E22D
:100D10000E94A4050E94030680E582B985EC86BF87
:100D200081E08FBD89E08EBD1BBC1ABC19BC18BC0C
:100D300089E485BD13BC83BF1CBE8AEC91E09F9300
:100D40008F930E940C1581E090E00E94E016809342
:100D5000A00085B78F7885BF84E089BF78940F9015
:100D60000F9022242A94312C00E010E88091EB00AF
:100D7000843A19F08F3FF1F031C080919F008130AB
:100D800061F428E13FE00FB6F894A89521BD0FBEAD
:100D900031BD42E040939F0021C080919F008111AE
:100DA0001DC00FB6F894A89581B5886181BD11BCAE
:100DB0000FBE14C08091EA00853A81F4F8946BE785
:100DC00080E090E00E94E816E199FECF58E188E0CB
:100DD0000FB6F894A89551BD0FBE81BD8091F40067
:100DE000882309F4E1C0F8948090EC009090ED0025
:100DF000A090EE00B090EF006091F0007091F100D3
:100E00008091F2009091F3001092F400789425E71D
:100E100039E54CEC5EE30E94421320E030E040E014
:100E20005FE30E944213A50194010E942E116B0101
:100E30007C01A5019401C501B4010E942E11A701F6
:100E400096010E942D1120E038E24EEA55E40E94FE
:100E500042134B015C0120E038E24EEA55E4C70141
:100E6000B6010E9442136B017C018091A40088238B
:100E7000B9F18091A40064E670E0681B7109072E47
:100E8000000C880B990B0E944E129B01AC01C5010E
:100E9000B4010E94421320E030E048EC52E40E948A
:100EA000A4110E9416127093D3006093D200809117
:100EB000A40064E670E0681B7109072E000C880B23
:100EC000990B0E944E129B01AC01C701B6010E9412
:100ED000421320E030E048EC52E40E94A4110AC022
:100EE000C501B4010E9416127093D3006093D20022
:100EF000C701B6010E9416127093CF006093CE0016
:100F00008091A5008823B9F18091A50064E670E086
:100F1000681B7109072E000C880B990B0E944E125A
:100F20009B01AC01C501B4010E94421320E030E0F6
:100F300048EC52E40E94A4110E9416127093D10052
:100F40006093D0008091A50064E670E0681B710991
:100F5000072E000C880B990B0E944E129B01AC01CE
:100F6000C701B6010E94421320E030E048EC52E491
:100F70000E94A4110AC0C501B4010E941612709308
:100F8000D1006093D000C701B6010E941612709381
:100F9000CD006093CC0091E09093D9009093D8005D
:100FA0009093D7009093D6008091C300833C10F4B7
:100FB0000C94FE0F1092C300F894A091E000B09141
:100FC000E100BA83A983E091DE00F091DF00FC83A9
:100FD000EB832091DC003091DD003E832D83409136
:100FE000DA005091DB0058874F83789480918E000F
:100FF00090918F007D01E81AF90A80918C00909100
:101000008D006F01C81AD90A80918A0090918B00D7
:101010003901681A790A80918800909189002A0123
:10102000481A590AB7010F2C000C880B990B0E9423
:101030004E122AE037ED43E25CE30E94A4110E94C5
:1010400016126D877E878F87988BB6010D2C000C4A
:10105000880B990B0E944E122AE037ED43E25CE3C5
:101060000E94A4110E941612698B7A8B8B8B9C8B29
:10107000B301072C000C880B990B0E944E122AE03A
:1010800037ED43E25CE30E94A4110E9416126D8BBF
:101090007E8B8F8B988FB201052C000C880B990BDF
:1010A0000E944E122AE037ED43E25CE30E94A41155
:1010B0000E941612698F7A8F8B8F9C8FB7016C0DEF
:1010C0007D1D072E000C880B990B0E944E1220E00C
:1010D00038E24EE256E40E94A4114B015C01B301D8
:1010E000640D751D072E000C880B990B0E944E1283
:1010F00020E038E24EE256E40E94A4112B013C01AC
:10110000A50194010E942D1125E739E54CEC5EE321
:101110000E94A41169877A878B879C876091AF00B2
:101120007091B0008091B1009091B20029853A850C
:101130004B855C850E942E116B017C012BED3FE0FD
:1011400049EC50E40E943D1318164CF42BED3FE09F
:1011500049EC50E4C701B6010E942D1112C02BEDDD
:101160003FE049EC50ECC701B6010E949A1187FF9D
:101170000AC02BED3FE049EC50E4C701B6010E94E4
:101180002E116B017C01A3019201C501B4010E94E3
:101190002E1120E030E040E05FE30E9442134B015B
:1011A0005C014090B7005090B8006090B90070901A
:1011B000BA00C701B6010E949F11A50194010E94C7
:1011C00042139B01AC01C301B2010E942E116D8F2D
:1011D0007E8F8F8F98A34090B3005090B4006090A2
:1011E000B5007090B600C701B6010E94AF13A5010B
:1011F00094010E9442139B01AC01C301B2010E9401
:101200002E112B013C012AE037ED43E25CE3C501DE
:10121000B4010E94A4114B015C012AE037ED43E2C6
:101220005CE369857A858B859C850E94A411F8947E
:10123000C092AF00D092B000E092B100F092B20044
:101240002D8D3E8D4F8D58A12093B7003093B8005F
:101250004093B9005093BA004092B3005092B4004A
:101260006092B5007092B6004D855E855093C200C5
:101270004093C100A989BA89B093C000A093BF0070
:10128000ED89FE89F093BE00E093BD00298D3A8D73
:101290003093BC002093BB008092AB009092AC00D6
:1012A000A092AD00B092AE006093A7007093A8002A
:1012B0008093A9009093AA00789449815A81509311
:1012C0008F0040938E008B819C8190938D00809342
:1012D0008C00AD81BE81B0938B00A0938A00EF811A
:1012E000F885F0938900E0938800809184009091C4
:1012F0008500A0918600B0918700B7FF07C0B09528
:10130000A095909581959F4FAF4FBF4F813E9242E0
:10131000A240B105CCF08091C1009091C200892B10
:1013200099F41092E9001092E8001092D90080918F
:10133000A30080618093A300109284001092850026
:101340001092860010928700809180009091810019
:10135000A0918200B0918300B7FF07C0B095A0951F
:10136000909581959F4FAF4FBF4F813E9242A240D3
:10137000B105CCF08091BF009091C000892B99F409
:101380001092E7001092E6001092D8008091A3001E
:1013900080628093A30010928000109281001092CE
:1013A00082001092830080917C0090917D00A0913A
:1013B0007E00B0917F00B7FF07C0B095A0959095D3
:1013C00081959F4FAF4FBF4F813E9242A240B105E2
:1013D000CCF08091BD009091BE00892B99F41092C1
:1013E000E5001092E4001092D7008091A300806481
:1013F0008093A30010927C0010927D0010927E00DA
:1014000010927F008091780090917900A0917A00ED
:10141000B0917B00B7FF07C0B095A09590958195DE
:101420009F4FAF4FBF4F813E9242A240B105CCF0DB
:101430008091BB009091BC00892B99F41092E3003D
:101440001092E2001092D6008091A30080688093F1
:10145000A300109278001092790010927A001092F6
:101460007B008091D900813009F002C12091D20027
:101470003091D3008091CA009091CB002817390792
:1014800011F18091D2009091D3002091CA00309147
:10149000CB00821B930B97FF03C091958195910917
:1014A000853F914044F01092840010928500109284
:1014B0008600109287008091D2009091D300909383
:1014C000CB008093CA008091D2009091D30018166F
:1014D000190634F48091C1009091C20097FD13C0A9
:1014E0008091D2009091D30097FF10C08091C100ED
:1014F0009091C20031E020E0181619060CF030E09F
:10150000832F922F05C081E090E002C080E090E040
:101510002091D2003091D300232B11F0892B71F050
:101520001092E9001092E800109277001092760075
:101530008091A3008F7E8093A3009AC0E090D20098
:10154000F090D3008091C1009091C200E81AF90A8E
:10155000B7010F2C000C880B990B809084009090A1
:101560008500A0908600B0908700860E971EA81E6A
:10157000B91E8092840090928500A0928600B0925D
:1015800087000E944E1226EB33EF4DE75DE30E9489
:1015900042132B013C01C501B4010E944E1221E50A
:1015A00039E44DE95AE30E9442139B01AC01C301A7
:1015B000B2010E942E114B015C0180917600909146
:1015C0007700B701681B790B072E000C880B990B6D
:1015D0000E944E1220E030E0A9010E9442139B01BC
:1015E000AC01C501B4010E942E110E941612709325
:1015F000E9006093E800F0927700E0927600809135
:10160000E8009091E9001816190634F48091D20090
:101610009091D30097FD0DC08091E8009091E90072
:1016200097FF0CC08091D2009091D3001816190634
:101630002CF41093E9000093E8001AC08091E800B0
:101640009091E9008F3F910531F02CF03092E90044
:101650002092E8000DC08091E8009091E90081306F
:101660009F4F34F4E1E0FFEFF093E900E093E800EE
:101670008091D800813009F002C12091D0003091D2
:10168000D1008091C8009091C9002817390711F145
:101690008091D0009091D1002091C8003091C90074
:1016A000821B930B97FF03C0919581959109853F0C
:1016B000914044F0109280001092810010928200BC
:1016C000109283008091D0009091D1009093C90036
:1016D0008093C8008091D0009091D100181619060F
:1016E00034F48091BF009091C00097FD13C08091A9
:1016F000D0009091D10097FF10C08091BF009091D1
:10170000C00031E020E0181619060CF030E0832FFD
:10171000922F05C081E090E002C080E090E020912F
:10172000D0003091D100232B11F0892B71F0109251
:10173000E7001092E60010927500109274008091FC
:10174000A3008F7D8093A3009AC0E090D000F0901A
:10175000D1008091BF009091C000E81AF90AB7014A
:101760000F2C000C880B990B8090800090908100CA
:10177000A0908200B0908300860E971EA81EB91E0E
:101780008092800090928100A0928200B0928300AB
:101790000E944E1226EB33EF4DE75DE30E944213A9
:1017A0002B013C01C501B4010E944E1221E539E430
:1017B0004DE95AE30E9442139B01AC01C301B201FF
:1017C0000E942E114B015C01809174009091750074
:1017D000B701681B790B072E000C880B990B0E9430
:1017E0004E1220E030E0A9010E9442139B01AC019F
:1017F000C501B4010E942E110E9416127093E700D9
:101800006093E600F0927500E09274008091E6002B
:101810009091E7001816190634F48091D000909149
:10182000D10097FD0DC08091E6009091E70097FFF1
:101830000CC08091D0009091D100181619062CF49C
:101840001093E7000093E6001AC08091E6009091A3
:10185000E7008F3F910531F02CF03092E7002092A5
:10186000E6000DC08091E6009091E70081309F4F27
:1018700034F441E05FEF5093E7004093E60080913D
:10188000D700813009F002C12091CE003091CF0005
:101890008091C6009091C7002817390711F18091F7
:1018A000CE009091CF002091C6003091C700821BDE
:1018B000930B97FF03C0919581959109853F9140C6
:1018C00044F010927C0010927D0010927E001092E5
:1018D0007F008091CE009091CF009093C7008093BD
:1018E000C6008091CE009091CF001816190634F4EE
:1018F0008091BD009091BE0097FD13C08091CE00F5
:101900009091CF0097FF10C08091BD009091BE00D4
:1019100031E020E0181619060CF030E0832F922FEA
:1019200005C081E090E002C080E090E02091CE0010
:101930003091CF00232B11F0892B71F01092E5002C
:101940001092E40010927300109272008091A30034
:101950008F7B8093A3009AC0E090CE00F090CF00E0
:101960008091BD009091BE00E81AF90AB7010F2CD2
:10197000000C880B990B80907C0090907D00A090CB
:101980007E00B0907F00860E971EA81EB91E809222
:101990007C0090927D00A0927E00B0927F000E9419
:1019A0004E1226EB33EF4DE75DE30E9442132B010D
:1019B0003C01C501B4010E944E1221E539E44DE914
:1019C0005AE30E9442139B01AC01C301B2010E9481
:1019D0002E114B015C018091720090917300B70150
:1019E000681B790B072E000C880B990B0E944E1276
:1019F00020E030E0A9010E9442139B01AC01C50127
:101A0000B4010E942E110E9416127093E50060939B
:101A1000E400F0927300E09272008091E4009091F3
:101A2000E5001816190634F48091CE009091CF008D
:101A300097FD0DC08091E4009091E50097FF0CC0E8
:101A40008091CE009091CF00181619062CF41093B7
:101A5000E5000093E4001AC08091E4009091E50055
:101A60008F3F910531F02CF03092E5002092E40098
:101A70000DC08091E4009091E50081309F4F34F4D7
:101A8000E1E0FFEFF093E500E093E4008091D60001
:101A9000813009F002C12091CC003091CD008091BD
:101AA000C4009091C5002817390711F18091CC002E
:101AB0009091CD002091C4003091C500821B930B02
:101AC00097FF03C0919581959109853F914044F01E
:101AD000109278001092790010927A0010927B0098
:101AE0008091CC009091CD009093C5008093C4006C
:101AF0008091CC009091CD001816190634F4809195
:101B0000BB009091BC0097FD13C08091CC009091D8
:101B1000CD0097FF10C08091BB009091BC0031E0D8
:101B200020E0181619060CF030E0832F922F05C024
:101B300081E090E002C080E090E02091CC00309104
:101B4000CD00232B11F0892B71F01092E30010923D
:101B5000E20010927100109270008091A3008F77C4
:101B60008093A3009AC0E090CC00F090CD008091CB
:101B7000BB009091BC00E81AF90AB7010F2C000CC9
:101B8000880B990B8090780090907900A0907A0053
:101B9000B0907B00860E971EA81EB91E809278001A
:101BA00090927900A0927A00B0927B000E944E122F
:101BB00026EB33EF4DE75DE30E9442132B013C011E
:101BC000C501B4010E944E1221E539E44DE95AE302
:101BD0000E9442139B01AC01C301B2010E942E116D
:101BE0004B015C018091700090917100B701681BFE
:101BF000790B072E000C880B990B0E944E1220E0E7
:101C000030E0A9010E9442139B01AC01C501B4015F
:101C10000E942E110E9416127093E3006093E2005E
:101C2000F0927100E09270008091E2009091E300E8
:101C30001816190634F48091CC009091CD0097FDD0
:101C40000DC08091E2009091E30097FF0CC080915D
:101C5000CC009091CD00181619062CF41093E300D7
:101C60000093E2001AC08091E2009091E3008F3F60
:101C7000910531F02CF03092E3002092E2000DC08B
:101C80008091E2009091E30081309F4F34F441E075
:101C90005FEF5093E3004093E2008091A300807FC8
:101CA0008093A30080B326B33091A300982F907443
:101CB000892F90E043E0959587954A95E1F7277045
:101CC000822B809590958F709927832B8093A3000A
:101CD0008091E8009091E9002091660030916700C2
:101CE0002817390709F449C08091E8009091E9006C
:101CF000892B31F485B3837F85BB8FB58F7729C05E
:101D00008091E8009091E9008115904819F485B31D
:101D10008C601CC080916900811107C08091E8002F
:101D20009091E9001816190654F0809169008823F3
:101D300051F08091E8009091E90097FF04C085B3CD
:101D4000877F846003C085B38B7F886085BB8FB538
:101D500080688FBD8091E8009091E90090936700C2
:101D6000809366008091E8009091E90097FF03C09E
:101D70009195819591099BBD8ABD8091E6009091D6
:101D8000E70020916400309165002817390709F4B5
:101D900049C08091E6009091E700892B31F485B32A
:101DA0008F7C85BB8FB58F7D29C08091E600909197
:101DB000E7008115904819F485B380631CC08091B9
:101DC0006800811107C08091E6009091E700181625
:101DD000190654F080916800882351F08091E60044
:101DE0009091E70097FF04C085B38F7D806103C0A9
:101DF00085B38F7E806285BB8FB580628FBD8091F9
:101E0000E6009091E70090936500809364008091D4
:101E1000E6009091E70097FF03C0919581959109A5
:101E200099BD88BD8091E4009091E5002091620009
:101E3000309163002817390709F448C08091E40005
:101E40009091E500892B31F485B38F7385BB85B5FF
:101E50008F7D29C08091E4009091E5008115904824
:101E600019F485B3806C1CC08091D500811107C026
:101E70008091E4009091E5001816190654F08091C5
:101E8000D500882351F08091E4009091E50097FF00
:101E900004C085B38F77806403C085B38F7B80686F
:101EA00085BB85B5806285BD8091E4009091E50099
:101EB00090936300809362008091E4009091E5002C
:101EC00097FF03C091958195910983BD8091E200B0
:101ED0009091E3002091600030916100281739074C
:101EE00009F448C08091E2009091E300892B31F41D
:101EF00082B3837F82BB83B78F7D29C08091E2004C
:101F00009091E3008115904819F482B38C601CC055
:101F10008091D400811107C08091E2009091E3008C
:101F20001816190654F08091D400882351F080913E
:101F3000E2009091E30097FF04C082B3877F846042
:101F400003C082B38B7F886082BB83B7806283BF0C
:101F50008091E2009091E300909361008093600093
:101F60008091E2009091E30097FF03C091958195E5
:101F700091098CBF8091A6008F5F8093A60080910D
:101F8000A2008F3F29F08091A2008F5F8093A20072
:101F90008091A200843690F11092EC001092ED0036
:101FA0001092EE001092EF001092F0001092F100EB
:101FB0001092F2001092F300F1E0F093F40080919F
:101FC000A200843621F02FEF2093A20017C0809149
:101FD000A1001F928F93A8EBB1E0BF93AF930E9433
:101FE0000C156091A10081E090E00E94E8160F902E
:101FF0000F900F900F90E199FECFE5CF85B78068E5
:1020000085BF889585B78F7785BF0C94B606ACE001
:10201000B0E0EDE0F0E10C9429146C015B017A0171
:10202000FC0117821682838181FF0EC1CE010196C9
:102030004C01F6010381F50103FD159103FF119198
:102040005F01112309F4FCC0153249F403FD159119
:1020500003FF11915F01153211F020E01BC0B601A2
:10206000812F90E00E94D41437017301E2CF112335
:1020700009F4E6C0612F70E08BED91E02C870E949F
:102080007E142C85892B49F0F50103FD159103FF82
:1020900011915F0127FFEBCF09C0133229F01C36E5
:1020A00009F0D5C02068F0CF20E1EECF022F112338
:1020B00009F4C6C0612F70E084ED91E02C870E9486
:1020C0007E142C85892B41F03701F4E06F0E711CD2
:1020D000B6018FE390E011C0133639F0133781F069
:1020E000133519F5022F01600BC0370182E0680E2D
:1020F000711CB601F701808191810E94D414B5CF83
:102100003701F2E06F0E711CF701E080F180F701FA
:1021100000FD859100FF81917F01882309F4A5CFFF
:10212000B60190E00E94D414F2CF143611F01936A3
:1021300029F5370127FF09C0F4E06F0E711CF70184
:1021400060817181828193810AC0F2E06F0E711CFF
:10215000F70160817181072E000C880B990B022F0B
:102160000F7E97FF08C090958095709561957F4F81
:102170008F4F9F4F00642AE030E033C0103799F052
:1021800040F41835B1F01F3609F05AC028E030E0AD
:1021900014C0153719F0183741F052C0022F0F7EC6
:1021A0002AE030E00AC0022F0061046220E130E042
:1021B00004C0022F046020E132E0370107FF09C0AC
:1021C000F4E06F0E711CF70160817181828193814F
:1021D00008C0F2E06F0E711CF7016081718180E030
:1021E00090E0A4010E943215182F181906FF05C0AF
:1021F000B6018DE290E00E94D41404FF15C0FE01E8
:10220000E10FF11D8081803379F0B60180E390E029
:102210000E94D41402FF08C00072802F90E0B60123
:10222000885A9F4F0E94D4141150F401E10FF11D00
:102230008081B60190E00E94D4141111F5CF15CF22
:10224000F6018681978105C08FEF9FEF02C0022FB4
:1022500031CF2C96EEE00C9445145058BB27AA279A
:102260000E9445110C94EF120E94B61238F00E94A1
:10227000BD1220F039F49F3F19F426F40C94B312E8
:102280000EF4E095E7FB0C94AD12E92F0E941413B5
:1022900058F3BA17620773078407950720F079F49B
:1022A000A6F50C9436130EF4E0950B2EBA2FA02D44
:1022B0000B01B90190010C01CA01A0011124FF27F3
:1022C000591B99F0593F50F4503E68F11A16F040EE
:1022D000A22F232F342F4427585FF3CF46953795ED
:1022E0002795A795F0405395C9F77EF41F16BA0BB2
:1022F000620B730B840BBAF09150A1F0FF0FBB1F60
:10230000661F771F881FC2F70EC0BA0F621F731FA8
:10231000841F48F4879577956795B795F7959E3F05
:1023200008F0B0CF9395880F08F09927EE0F979596
:10233000879508950E94891208F481E008950E940B
:10234000C612E3950C9400130E94B8110C94EF127E
:102350000E94BD1258F00E94B61240F029F45F3F6F
:1023600029F00C94AD1251110C9437130C94B31244
:102370000E94141368F39923B1F3552391F3951B2D
:10238000550BBB27AA2762177307840738F09F5F96
:102390005F4F220F331F441FAA1FA9F335D00E2E03
:1023A0003AF0E0E832D091505040E695001CCAF770
:1023B0002BD0FE2F29D0660F771F881FBB1F261733
:1023C00037074807AB07B0E809F0BB0B802DBF010A
:1023D000FF2793585F4F3AF09E3F510578F00C94D9
:1023E000AD120C9437135F3FE4F3983ED4F3869517
:1023F00077956795B795F7959F5FC9F7880F911DFA
:102400009695879597F90895E1E0660F771F881FE5
:10241000BB1F621773078407BA0720F0621B730B98
:10242000840BBA0BEE1F88F7E09508950E941D12E9
:102430006894B1110C94371308950E941C1388F00E
:102440009F5798F0B92F9927B751B0F0E1F0660F78
:10245000771F881F991F1AF0BA95C9F714C0B130B9
:1024600091F00E943613B1E008950C943613672F53
:10247000782F8827B85F39F0B93FCCF386957795E8
:102480006795B395D9F73EF49095809570956195D1
:102490007F4F8F4F9F4F0895E89409C097FB3EF4FC
:1024A00090958095709561957F4F8F4F9F4F9923A1
:1024B000A9F0F92F96E9BB279395F695879577951F
:1024C0006795B795F111F8CFFAF4BB0F11F460FFDF
:1024D0001BC06F5F7F4F8F4F9F4F16C0882311F037
:1024E00096E911C0772321F09EE8872F762F05C04B
:1024F000662371F096E8862F70E060E02AF09A95E6
:10250000660F771F881FDAF7880F9695879597F9DA
:102510000895990F0008550FAA0BE0E8FEEF161674
:102520001706E807F907C0F012161306E407F507C7
:1025300098F0621B730B840B950B39F40A2661F03B
:10254000232B242B252B21F408950A2609F4A140DE
:10255000A6958FEF811D811D089597F99F6780E8EB
:1025600070E060E008959FEF80EC089500240A94E5
:102570001616170618060906089500240A9412165E
:1025800013061406050608950C94B3120E941C133A
:10259000D8F3E894E0E0BB279F57F0F02AED3FE046
:1025A00049EC06C0EE0FBB0F661F771F881F28F08F
:1025B000B23A62077307840728F0B25A620B730BB2
:1025C000840BE3959A9572F7803830F49A95BB0F97
:1025D000661F771F881FD2F790480C94B913092EF5
:1025E0000394000C11F4882352F0BB0F40F4BF2B6E
:1025F00011F460FF04C06F5F7F4F8F4F9F4F0895AE
:10260000EF93E0FF07C0A2EA2AED3FE049EC5FEB61
:102610000E9445110E94EF120F90039401FC905804
:10262000EAE9F1E00C94C51357FD9058440F551F8B
:1026300059F05F3F71F04795880F97FB991F61F044
:102640009F3F79F087950895121613061406551FBB
:10265000F2CF4695F1DF08C0161617061806991F27
:10266000F1CF86957105610508940895E894BB271C
:1026700066277727CB0197F908950E94891208F4FD
:102680008FEF08950E9455130C94EF120E94B6121A
:1026900038F00E94BD1220F0952311F00C94AD1279
:1026A0000C94B31211240C9437130E94141370F37A
:1026B000959FC1F3950F50E0551F629FF001729FE7
:1026C000BB27F00DB11D639FAA27F00DB11DAA1FF6
:1026D000649F6627B00DA11D661F829F2227B00D43
:1026E000A11D621F739FB00DA11D621F839FA00DCE
:1026F000611D221F749F3327A00D611D231F849F1E
:10270000600D211D822F762F6A2F11249F57504074
:102710009AF0F1F088234AF0EE0FFF1FBB1F661FEF
:10272000771F881F91505040A9F79E3F510580F0B8
:102730000C94AD120C9437135F3FE4F3983ED4F33E
:10274000869577956795B795F795E7959F5FC1F75C
:10275000FE2B880F911D9695879597F908959F9365
:102760000E94C6120F9007FCEE5F0C9400139F3F6F
:1027700031F0915020F4879577956795B795880F3C
:10278000911D9695879597F908959F938F937F93C1
:102790006F93FF93EF939B01AC010E944213EF9163
:1027A000FF910E94D9132F913F914F915F910C940B
:1027B0004213DF93CF931F930F93FF92EF92DF9219
:1027C0007B018C01689406C0DA2EEF010E9455133C
:1027D000FE01E894A5912591359145915591A6F377
:1027E000EF010E944511FE019701A801DA9469F7F3
:1027F000DF90EF90FF900F911F91CF91DF9108959F
:10280000052E97FB1EF400940E94171457FD07D065
:102810000E945C1407FC03D04EF40C9417145095DE
:102820004095309521953F4F4F4F5F4F08959095BC
:102830008095709561957F4F8F4F9F4F0895EE0F54
:10284000FF1F0590F491E02D09942F923F924F9233
:102850005F926F927F928F929F92AF92BF92CF9230
:10286000DF92EF92FF920F931F93CF93DF93CDB739
:10287000DEB7CA1BDB0B0FB6F894DEBF0FBECDBFB1
:1028800009942A88398848885F846E847D848C8482
:102890009B84AA84B984C884DF80EE80FD800C818B
:1028A0001B81AA81B981CE0FD11D0FB6F894DEBF6E
:1028B0000FBECDBFED010895A1E21A2EAA1BBB1BCE
:1028C000FD010DC0AA1FBB1FEE1FFF1FA217B307FC
:1028D000E407F50720F0A21BB30BE40BF50B661F12
:1028E000771F881F991F1A9469F7609570958095D6
:1028F00090959B01AC01BD01CF010895FC010590AD
:10290000061621F00020D9F7C00108953197CF01B4
:1029100008950F931F93CF93DF93009731F46115C0
:10292000710519F480E090E03AC08B01EC016EE093
:1029300070E081E090E00E949015FC01892B91F3FA
:1029400080E883830115110571F01387028781E800
:1029500083838091600190916101892B21F4F09330
:102960006101E09360012097C9F0D187C08783811E
:10297000826083838091620190916301892B71F45D
:10298000F0936301E093620180916401909165018D
:10299000892B21F4F0936501E0936401CF01DF916D
:1029A000CF911F910F9108950F931F93CF93DF93B2
:1029B000FB01238121FD03C08FEF9FEF28C022FF81
:1029C00016C046815781248135814217530744F44C
:1029D000A081B1819D012F5F3F4F318320838C9374
:1029E000268137812F5F3F4F3783268310C0EB014D
:1029F000092F182F0084F185E02D0995892BE1F628
:102A00008E819F8101969F838E83812F902FDF91EE
:102A1000CF911F910F910895A0E0B0E0E2E1F5E1C0
:102A20000C943314AE01495F5F4FDA016D917D91D3
:102A3000AD0100E611E0F80182819381DC0113967B
:102A40002C911397286013962C930E940710D8019D
:102A50001296ED91FC9113972381277F2383E4E065
:102A60000C944F14FA01AA27283051F1203181F13A
:102A7000E8946F936E7F6E5F7F4F8F4F9F4FAF4F86
:102A8000B1E03ED0B4E03CD0670F781F891F9A1F99
:102A9000A11D680F791F8A1F911DA11D6A0F711D4D
:102AA000811D911DA11D20D009F468943F912AE059
:102AB000269F11243019305D3193DEF6CF01089541
:102AC000462F4770405D4193B3E00FD0C9F7F6CF72
:102AD000462F4F70405D4A3318F0495D31FD40523A
:102AE000419302D0A9F7EACFB4E0A69597958795D0
:102AF00077956795BA95C9F70097610571050895AF
:102B00009B01AC010A2E069457954795379527955A
:102B1000BA95C9F7620F731F841F951FA01D0895F2
:102B20000F931F93CF93DF93869F8001879F100D94
:102B3000969F100D1124C8010E94AC15EC0100975E
:102B400029F0A80160E070E00E94D916CE01DF9163
:102B5000CF911F910F910895CF93DF93823091050C
:102B600010F482E090E0E0916801F091690120E0CA
:102B700030E0C0E0D0E0309711F14081518148173A
:102B80005907C0F04817590761F482819381209753
:102B900019F09B838A832BC090936901809368010D
:102BA00026C02115310519F04217530718F49A0170
:102BB000BE01DF01EF010280F381E02DDCCF2115A2
:102BC000310509F1281B390B2430310590F4129698
:102BD0008D919C9113976115710521F0FB019383F1
:102BE000828304C09093690180936801FD0132964D
:102BF00044C0FD01E20FF31F8193919322503109EC
:102C00002D933C933AC02091660130916701232BAC
:102C100041F420916C0030916D0030936701209356
:102C2000660120916A0030916B002115310541F455
:102C30002DB73EB740916E0050916F00241B350BAD
:102C4000E0916601F0916701E217F307A0F42E1BF3
:102C50003F0B2817390778F0AC014E5F5F4F241700
:102C6000350748F04E0F5F1F509367014093660190
:102C70008193919302C0E0E0F0E0CF01DF91CF912A
:102C800008950F931F93CF93DF93009709F48CC09F
:102C9000FC01329713821282009168011091690140
:102CA0000115110581F420813181820F931F20913C
:102CB0006601309167012817390779F5F0936701AC
:102CC000E093660171C0D80140E050E0AE17BF0745
:102CD00050F412962D913C911397AD0121153105B9
:102CE00009F1D901F3CF9D01DA0133832283608199
:102CF0007181860F971F8217930769F4EC01288171
:102D00003981260F371F2E5F3F4F318320838A8101
:102D10009B8193838283452B29F4F0936901E0938F
:102D2000680142C01396FC93EE931297ED0149910E
:102D300059919E01240F351FE217F30771F480812A
:102D40009181840F951F029611969C938E93828198
:102D5000938113969C938E931297E0E0F0E0D80154
:102D600012968D919C911397009719F0F8018C01A0
:102D7000F6CF8D919C9198012E5F3F4F820F931F4C
:102D800020916601309167012817390769F430975F
:102D900029F4109269011092680102C01382128214
:102DA0001093670100936601DF91CF911F910F91FE
:102DB0000895DC0101C06D9341505040E0F7089543
:102DC000E199FECF9FBB8EBBE09A99278DB3089502
:102DD000262FE199FECF9FBB8EBB2DBB0FB6F8947B
:0E2DE000E29AE19A0FBE01960895F894FFCF93
:102DEE000080008000800080010100006A01200048
:00000001FF
